{
  "contractName": "Circuit_Breaker",
  "abi": [
    {
      "inputs": [],
      "name": "owner",
      "outputs": [
        {
          "internalType": "address payable",
          "name": "",
          "type": "address"
        }
      ],
      "stateMutability": "view",
      "type": "function"
    },
    {
      "inputs": [],
      "name": "paused",
      "outputs": [
        {
          "internalType": "bool",
          "name": "",
          "type": "bool"
        }
      ],
      "stateMutability": "view",
      "type": "function"
    },
    {
      "inputs": [],
      "name": "togglePause",
      "outputs": [
        {
          "internalType": "bool",
          "name": "",
          "type": "bool"
        }
      ],
      "stateMutability": "nonpayable",
      "type": "function"
    }
  ],
  "bytecode": "0x608060405260008060146101000a81548160ff02191690831515021790555034801561002a57600080fd5b506102208061003a6000396000f3fe608060405234801561001057600080fd5b50600436106100415760003560e01c80635c975abb146100465780638da5cb5b14610066578063c4ae31681461009a575b600080fd5b61004e6100ba565b60405180821515815260200191505060405180910390f35b61006e6100cd565b604051808273ffffffffffffffffffffffffffffffffffffffff16815260200191505060405180910390f35b6100a26100f1565b60405180821515815260200191505060405180910390f35b600060149054906101000a900460ff1681565b60008054906101000a900473ffffffffffffffffffffffffffffffffffffffff1681565b60008060009054906101000a900473ffffffffffffffffffffffffffffffffffffffff1673ffffffffffffffffffffffffffffffffffffffff163373ffffffffffffffffffffffffffffffffffffffff1614610198576040517f08c379a00000000000000000000000000000000000000000000000000000000081526004018080602001828103825260218152602001806101ca6021913960400191505060405180910390fd5b600060149054906101000a900460ff1615600060146101000a81548160ff021916908315150217905550600190509056fe4f6e6c79204f776e65722063616e2063616c6c20746869732066756e6374696f6ea26469706673582212201586d80e255be32acbcf25bd7c05d461a332d0189b30f08405b58e4fcecbb36864736f6c63430007000033",
  "immutableReferences": {},
  "source": "// SPDX-License-Identifier: MIT\r\n\r\npragma solidity 0.7.0;\r\n\r\nimport \"./Owner.sol\";\r\n\r\ncontract Circuit_Breaker is Owner {\r\n\r\n///Flag use for circuit-breaker  \r\n  bool public paused = false;\r\n\r\n///Modifier to Check contract is Paused\r\nmodifier notPaused {\r\n        require(paused == false,\"This Contract is Paused by Admin\");\r\n        _;\r\n    }\r\n\r\n/// @notice Pause the contract in case of emergency.\r\n    function togglePause() public isAdmin returns (bool){\r\n        paused = !paused;\r\n        return true;\r\n    }\r\n\r\n}",
  "sourcePath": "C:\\Users\\Neha\\Desktop\\Omkar\\Blockchain\\ConsensysFinalProject\\Marketplace\\src\\contracts\\Circuit_Breaker.sol",
  "compiler": {
    "name": "solc",
    "version": "0.7.0+commit.9e61f92b.Emscripten.clang"
  },
  "schemaVersion": "3.2.5",
  "updatedAt": "2020-12-13T23:37:01.222Z",
  "devdoc": {
    "kind": "dev",
    "methods": {},
    "version": 1
  },
  "userdoc": {
    "kind": "user",
    "methods": {
      "owner()": {
        "notice": "Declaring owner of smart contract"
      },
      "paused()": {
        "notice": "Flag use for circuit-breaker  "
      },
      "togglePause()": {
        "notice": "Pause the contract in case of emergency."
      }
    },
    "version": 1
  }
}