{
  "contractName": "Marketplace",
  "abi": [
    {
      "inputs": [],
      "stateMutability": "nonpayable",
      "type": "constructor"
    },
    {
      "anonymous": false,
      "inputs": [
        {
          "indexed": false,
          "internalType": "uint256",
          "name": "id",
          "type": "uint256"
        },
        {
          "indexed": false,
          "internalType": "string",
          "name": "name",
          "type": "string"
        },
        {
          "indexed": false,
          "internalType": "uint256",
          "name": "price",
          "type": "uint256"
        },
        {
          "indexed": false,
          "internalType": "address payable",
          "name": "owner",
          "type": "address"
        },
        {
          "indexed": false,
          "internalType": "bool",
          "name": "purchased",
          "type": "bool"
        }
      ],
      "name": "ProductCreated",
      "type": "event"
    },
    {
      "anonymous": false,
      "inputs": [
        {
          "indexed": false,
          "internalType": "uint256",
          "name": "id",
          "type": "uint256"
        },
        {
          "indexed": false,
          "internalType": "string",
          "name": "name",
          "type": "string"
        },
        {
          "indexed": false,
          "internalType": "uint256",
          "name": "price",
          "type": "uint256"
        },
        {
          "indexed": false,
          "internalType": "address payable",
          "name": "owner",
          "type": "address"
        },
        {
          "indexed": false,
          "internalType": "bool",
          "name": "purchased",
          "type": "bool"
        }
      ],
      "name": "ProductPurchased",
      "type": "event"
    },
    {
      "inputs": [],
      "name": "name",
      "outputs": [
        {
          "internalType": "string",
          "name": "",
          "type": "string"
        }
      ],
      "stateMutability": "view",
      "type": "function",
      "constant": true
    },
    {
      "inputs": [],
      "name": "productCount",
      "outputs": [
        {
          "internalType": "uint256",
          "name": "",
          "type": "uint256"
        }
      ],
      "stateMutability": "view",
      "type": "function",
      "constant": true
    },
    {
      "inputs": [
        {
          "internalType": "uint256",
          "name": "",
          "type": "uint256"
        }
      ],
      "name": "products",
      "outputs": [
        {
          "internalType": "uint256",
          "name": "id",
          "type": "uint256"
        },
        {
          "internalType": "string",
          "name": "name",
          "type": "string"
        },
        {
          "internalType": "uint256",
          "name": "price",
          "type": "uint256"
        },
        {
          "internalType": "address payable",
          "name": "owner",
          "type": "address"
        },
        {
          "internalType": "bool",
          "name": "purchased",
          "type": "bool"
        }
      ],
      "stateMutability": "view",
      "type": "function",
      "constant": true
    },
    {
      "inputs": [],
      "name": "toggleContractStopped",
      "outputs": [],
      "stateMutability": "nonpayable",
      "type": "function"
    },
    {
      "inputs": [
        {
          "internalType": "string",
          "name": "_name",
          "type": "string"
        },
        {
          "internalType": "uint256",
          "name": "_price",
          "type": "uint256"
        }
      ],
      "name": "createProduct",
      "outputs": [],
      "stateMutability": "nonpayable",
      "type": "function"
    },
    {
      "inputs": [
        {
          "internalType": "uint256",
          "name": "_id",
          "type": "uint256"
        }
      ],
      "name": "purchaseProduct",
      "outputs": [],
      "stateMutability": "payable",
      "type": "function",
      "payable": true
    }
  ],
  "bytecode": "0x608060405260008060146101000a81548160ff021916908315150217905550600060015534801561002f57600080fd5b506040518060400160405280601581526020017f436f6e73656e737973204d61726b6574706c61636500000000000000000000008152506002908051906020019061007b929190610081565b5061011e565b828054600181600116156101000203166002900490600052602060002090601f016020900481019282601f106100c257805160ff19168380011785556100f0565b828001600101855582156100f0579182015b828111156100ef5782518255916020019190600101906100d4565b5b5090506100fd9190610101565b5090565b5b8082111561011a576000816000905550600101610102565b5090565b610d3e8061012d6000396000f3fe6080604052600436106100555760003560e01c806306fdde031461005a57806338e76a03146100ea5780637acc0b2014610118578063e0f6ef8714610200578063e83c78d41461022b578063e9300c6c14610242575b600080fd5b34801561006657600080fd5b5061006f610314565b6040518080602001828103825283818151815260200191508051906020019080838360005b838110156100af578082015181840152602081019050610094565b50505050905090810190601f1680156100dc5780820380516001836020036101000a031916815260200191505b509250505060405180910390f35b6101166004803603602081101561010057600080fd5b81019080803590602001909291905050506103b2565b005b34801561012457600080fd5b506101516004803603602081101561013b57600080fd5b81019080803590602001909291905050506107a7565b60405180868152602001806020018581526020018473ffffffffffffffffffffffffffffffffffffffff1681526020018315158152602001828103825286818151815260200191508051906020019080838360005b838110156101c15780820151818401526020810190506101a6565b50505050905090810190601f1680156101ee5780820380516001836020036101000a031916815260200191505b50965050505050505060405180910390f35b34801561020c57600080fd5b506102156108a2565b6040518082815260200191505060405180910390f35b34801561023757600080fd5b506102406108a8565b005b34801561024e57600080fd5b506103126004803603604081101561026557600080fd5b810190808035906020019064010000000081111561028257600080fd5b82018360208201111561029457600080fd5b803590602001918460018302840111640100000000831117156102b657600080fd5b91908080601f016020809104026020016040519081016040528093929190818152602001838380828437600081840152601f19601f8201169050808301925050505050505091929192908035906020019092919050505061092c565b005b60028054600181600116156101000203166002900480601f0160208091040260200160405190810160405280929190818152602001828054600181600116156101000203166002900480156103aa5780601f1061037f576101008083540402835291602001916103aa565b820191906000526020600020905b81548152906001019060200180831161038d57829003601f168201915b505050505081565b6103ba610bbe565b600360008381526020019081526020016000206040518060a001604052908160008201548152602001600182018054600181600116156101000203166002900480601f01602080910402602001604051908101604052809291908181526020018280546001816001161561010002031660029004801561047b5780601f106104505761010080835404028352916020019161047b565b820191906000526020600020905b81548152906001019060200180831161045e57829003601f168201915b50505050508152602001600282015481526020016003820160009054906101000a900473ffffffffffffffffffffffffffffffffffffffff1673ffffffffffffffffffffffffffffffffffffffff1673ffffffffffffffffffffffffffffffffffffffff1681526020016003820160149054906101000a900460ff1615151515815250509050600081606001519050600082600001511180156105245750600154826000015111155b61052d57600080fd5b816040015134101561053e57600080fd5b81608001511561054d57600080fd5b3373ffffffffffffffffffffffffffffffffffffffff168173ffffffffffffffffffffffffffffffffffffffff16141561058657600080fd5b33826060019073ffffffffffffffffffffffffffffffffffffffff16908173ffffffffffffffffffffffffffffffffffffffff168152505060018260800190151590811515815250508160036000858152602001908152602001600020600082015181600001556020820151816001019080519060200190610609929190610c05565b506040820151816002015560608201518160030160006101000a81548173ffffffffffffffffffffffffffffffffffffffff021916908373ffffffffffffffffffffffffffffffffffffffff16021790555060808201518160030160146101000a81548160ff0219169083151502179055509050508073ffffffffffffffffffffffffffffffffffffffff166108fc349081150290604051600060405180830381858888f193505050501580156106c4573d6000803e3d6000fd5b507f79558d0d7d4d900e2f15c4cc0a665f1acdbe415e44de900ecdd1e5bf12b56f4e838360200151846040015133600160405180868152602001806020018581526020018473ffffffffffffffffffffffffffffffffffffffff1681526020018315158152602001828103825286818151815260200191508051906020019080838360005b83811015610764578082015181840152602081019050610749565b50505050905090810190601f1680156107915780820380516001836020036101000a031916815260200191505b50965050505050505060405180910390a1505050565b6003602052806000526040600020600091509050806000015490806001018054600181600116156101000203166002900480601f0160208091040260200160405190810160405280929190818152602001828054600181600116156101000203166002900480156108595780601f1061082e57610100808354040283529160200191610859565b820191906000526020600020905b81548152906001019060200180831161083c57829003601f168201915b5050505050908060020154908060030160009054906101000a900473ffffffffffffffffffffffffffffffffffffffff16908060030160149054906101000a900460ff16905085565b60015481565b60008054906101000a900473ffffffffffffffffffffffffffffffffffffffff1673ffffffffffffffffffffffffffffffffffffffff163373ffffffffffffffffffffffffffffffffffffffff161461090057600080fd5b600060149054906101000a900460ff1615600060146101000a81548160ff021916908315150217905550565b6000825111610986576040517f08c379a000000000000000000000000000000000000000000000000000000000815260040180806020018281038252603f815260200180610ca3603f913960400191505060405180910390fd5b600081116109df576040517f08c379a0000000000000000000000000000000000000000000000000000000008152600401808060200182810382526027815260200180610ce26027913960400191505060405180910390fd5b6001600081548092919060010191905055506040518060a0016040528060015481526020018381526020018281526020013373ffffffffffffffffffffffffffffffffffffffff16815260200160001515815250600360006001548152602001908152602001600020600082015181600001556020820151816001019080519060200190610a6e929190610c05565b506040820151816002015560608201518160030160006101000a81548173ffffffffffffffffffffffffffffffffffffffff021916908373ffffffffffffffffffffffffffffffffffffffff16021790555060808201518160030160146101000a81548160ff0219169083151502179055509050507fbc59c0c8165864dcceb377dd07d8f431d4303f8e501cb0a0374a10cc68d71836600154838333600060405180868152602001806020018581526020018473ffffffffffffffffffffffffffffffffffffffff1681526020018315158152602001828103825286818151815260200191508051906020019080838360005b83811015610b7c578082015181840152602081019050610b61565b50505050905090810190601f168015610ba95780820380516001836020036101000a031916815260200191505b50965050505050505060405180910390a15050565b6040518060a00160405280600081526020016060815260200160008152602001600073ffffffffffffffffffffffffffffffffffffffff1681526020016000151581525090565b828054600181600116156101000203166002900490600052602060002090601f016020900481019282601f10610c4657805160ff1916838001178555610c74565b82800160010185558215610c74579182015b82811115610c73578251825591602001919060010190610c58565b5b509050610c819190610c85565b5090565b5b80821115610c9e576000816000905550600101610c86565b509056fe50726f64756374204e616d652073686f756c6420626520612076616c6964206e616d65206f66206c656e6774682067726561746572207468616e207a65726f50726f64756374205072696365206d7573742062652067726561746572207468616e207a65726fa2646970667358221220e2ada83ba502f39328d9c2ce1db04ad766ddab299cdfd3df40e71387fcd77c7b64736f6c63430007000033",
  "immutableReferences": {},
  "source": "// SPDX-License-Identifier: MIT\r\n\r\npragma solidity 0.7.0;\r\n\r\n/// @title Marketplace\r\n/// @author Shailendra Kumar Omkar\r\n/// @notice You can use this contract for creating & purchasing Products\r\n/// @dev All function calls are currently implemented without side effects\r\ncontract Marketplace  {\r\n\r\naddress private owner;\r\n bool private stopped = false;\r\n /**\r\n  @dev Checks if the contract is not stopped; reverts if it is.\r\n  */\r\n  modifier isNotStopped {\r\n    require(!stopped, 'Contract is stopped.');\r\n    _;\r\n  }\r\n\r\nmodifier isAdmin() {\r\n    require(msg.sender == owner);\r\n    _;\r\n}\r\n\r\n\r\nfunction toggleContractStopped() isAdmin public {\r\n      stopped = !stopped;\r\n  }\r\n\r\n\r\n  /// @notice It keeps the counter track of Product which are added\r\n  /// @dev Initializing with zero\r\n    uint public productCount=0;\r\n\r\n  ///DApp Name\r\n  string public name;\r\n  /// Create a struct named Product.\r\n  /// It contain Product details -  id, name, price, owner, purchased\r\n    struct Product{\r\n        uint id;\r\n        string name;\r\n        uint price;\r\n        address payable owner;\r\n        bool purchased;\r\n    }\r\n\r\n\r\n  /// Create a Public mapping that maps ProductCount (a number) to an Product (struct)\r\n\r\n    mapping(uint => Product) public products;\r\n\r\n  /// @notice Create event ProductCreated for EVM logging\r\n  /// @dev This event will be emitted when a new Product has been created\r\n \r\n    event ProductCreated(\r\n        uint id,\r\n        string name,\r\n        uint price,\r\n        address payable owner,\r\n        bool purchased\r\n    );\r\n\r\n  /// @notice Create event ProductPurchased for EVM logging\r\n  /// @dev This event will be emitted when a Product has been purchased\r\n\r\nevent ProductPurchased(\r\n        uint id,\r\n        string name,\r\n        uint price,\r\n        address payable owner,\r\n        bool purchased\r\n    );\r\n   \r\n// modifier onlyAdmin() {\r\n//   require(msg.sender == contractOwner);\r\n//   _;\r\n// }\r\n\r\n   constructor() public {\r\n     /*Initialsing DApp Name in constructor\r\n     */\r\n        name=\"Consensys Marketplace\";\r\n    }\r\n\r\n  /// @notice Creating a Product\r\n  /// @dev It will validate Product Name length & Product Price value\r\n /// @param _name Product Name  _price Product Price\r\n    function createProduct(string memory _name, uint _price) public {\r\n      \r\n        require(bytes(_name).length>0 ,\"Product Name should be a valid name of length greater than zero\");\r\n        require(_price >0,\"Product Price must be greater than zero\");\r\n\r\n        productCount++;\r\n        products[productCount] = Product(productCount,_name,_price, msg.sender,false);\r\n\r\n        emit ProductCreated(productCount,_name,_price, msg.sender,false);\r\n        \r\n    }\r\n\r\n   /// @notice Purchasing a Product\r\n   /// @dev It will check for valid Product Id, \r\n   ///      Product Price to purchase\r\n   ///      Product is not already purchased\r\n   ///      Buyer is not same as seller\r\n   /// @param _id product ID\r\n    function purchaseProduct(uint _id) public payable{\r\n    Product memory _product = products[_id];\r\n\r\n    address payable seller = _product.owner;\r\n\r\n    require(_product.id > 0 && _product.id <= productCount);\r\n    require((msg.value >= _product.price));\r\n    require(!_product.purchased);\r\n    require(seller != msg.sender);\r\n\r\n\r\n    _product.owner = msg.sender;\r\n    _product.purchased = true;\r\n    products[_id] = _product;\r\n\r\n    seller.transfer(msg.value);\r\n    // seller.call{value:msg.value};\r\n    emit ProductPurchased(_id,_product.name,_product.price,msg.sender,true);\r\n    }\r\n}",
  "sourcePath": "C:/Users/Neha/Desktop/Omkar/Blockchain/ConsensysFinalProject/Marketplace/src/contracts/Marketplace.sol",
  "compiler": {
    "name": "solc",
    "version": "0.7.0+commit.9e61f92b.Emscripten.clang"
  },
  "schemaVersion": "3.2.5",
  "updatedAt": "2020-12-11T20:24:28.158Z",
  "networkType": "ethereum",
  "devdoc": {
    "author": "Shailendra Kumar Omkar",
    "details": "All function calls are currently implemented without side effects",
    "events": {
      "ProductCreated(uint256,string,uint256,address,bool)": {
        "details": "This event will be emitted when a new Product has been created"
      },
      "ProductPurchased(uint256,string,uint256,address,bool)": {
        "details": "This event will be emitted when a Product has been purchased"
      }
    },
    "kind": "dev",
    "methods": {
      "createProduct(string,uint256)": {
        "details": "It will validate Product Name length & Product Price value",
        "params": {
          "_name": "Product Name  _price Product Price"
        }
      },
      "purchaseProduct(uint256)": {
        "details": "It will check for valid Product Id,       Product Price to purchase      Product is not already purchased      Buyer is not same as seller",
        "params": {
          "_id": "product ID"
        }
      }
    },
    "stateVariables": {
      "productCount": {
        "details": "Initializing with zero"
      }
    },
    "title": "Marketplace",
    "version": 1
  },
  "userdoc": {
    "events": {
      "ProductCreated(uint256,string,uint256,address,bool)": {
        "notice": "Create event ProductCreated for EVM logging"
      },
      "ProductPurchased(uint256,string,uint256,address,bool)": {
        "notice": "Create event ProductPurchased for EVM logging"
      }
    },
    "kind": "user",
    "methods": {
      "createProduct(string,uint256)": {
        "notice": "Creating a Product"
      },
      "name()": {
        "notice": "DApp Name"
      },
      "productCount()": {
        "notice": "It keeps the counter track of Product which are added"
      },
      "products(uint256)": {
        "notice": "Create a Public mapping that maps ProductCount (a number) to an Product (struct)"
      },
      "purchaseProduct(uint256)": {
        "notice": "Purchasing a Product"
      }
    },
    "notice": "You can use this contract for creating & purchasing Products",
    "version": 1
  }
}