{
  "contractName": "Marketplace",
  "abi": [
    {
      "inputs": [],
      "stateMutability": "nonpayable",
      "type": "constructor"
    },
    {
      "anonymous": false,
      "inputs": [
        {
          "indexed": false,
          "internalType": "uint256",
          "name": "id",
          "type": "uint256"
        },
        {
          "indexed": false,
          "internalType": "string",
          "name": "name",
          "type": "string"
        },
        {
          "indexed": false,
          "internalType": "uint256",
          "name": "price",
          "type": "uint256"
        },
        {
          "indexed": false,
          "internalType": "address payable",
          "name": "owner",
          "type": "address"
        },
        {
          "indexed": false,
          "internalType": "bool",
          "name": "purchased",
          "type": "bool"
        }
      ],
      "name": "ProductCreated",
      "type": "event"
    },
    {
      "anonymous": false,
      "inputs": [
        {
          "indexed": false,
          "internalType": "uint256",
          "name": "id",
          "type": "uint256"
        },
        {
          "indexed": false,
          "internalType": "string",
          "name": "name",
          "type": "string"
        },
        {
          "indexed": false,
          "internalType": "uint256",
          "name": "price",
          "type": "uint256"
        },
        {
          "indexed": false,
          "internalType": "address payable",
          "name": "owner",
          "type": "address"
        },
        {
          "indexed": false,
          "internalType": "bool",
          "name": "purchased",
          "type": "bool"
        }
      ],
      "name": "ProductPurchased",
      "type": "event"
    },
    {
      "inputs": [],
      "name": "name",
      "outputs": [
        {
          "internalType": "string",
          "name": "",
          "type": "string"
        }
      ],
      "stateMutability": "view",
      "type": "function"
    },
    {
      "inputs": [],
      "name": "owner",
      "outputs": [
        {
          "internalType": "address",
          "name": "",
          "type": "address"
        }
      ],
      "stateMutability": "view",
      "type": "function"
    },
    {
      "inputs": [],
      "name": "paused",
      "outputs": [
        {
          "internalType": "bool",
          "name": "",
          "type": "bool"
        }
      ],
      "stateMutability": "view",
      "type": "function"
    },
    {
      "inputs": [],
      "name": "productCount",
      "outputs": [
        {
          "internalType": "uint256",
          "name": "",
          "type": "uint256"
        }
      ],
      "stateMutability": "view",
      "type": "function"
    },
    {
      "inputs": [
        {
          "internalType": "uint256",
          "name": "",
          "type": "uint256"
        }
      ],
      "name": "products",
      "outputs": [
        {
          "internalType": "uint256",
          "name": "id",
          "type": "uint256"
        },
        {
          "internalType": "string",
          "name": "name",
          "type": "string"
        },
        {
          "internalType": "uint256",
          "name": "price",
          "type": "uint256"
        },
        {
          "internalType": "address payable",
          "name": "owner",
          "type": "address"
        },
        {
          "internalType": "bool",
          "name": "purchased",
          "type": "bool"
        }
      ],
      "stateMutability": "view",
      "type": "function"
    },
    {
      "inputs": [],
      "name": "togglePause",
      "outputs": [],
      "stateMutability": "nonpayable",
      "type": "function"
    },
    {
      "inputs": [
        {
          "internalType": "string",
          "name": "_name",
          "type": "string"
        },
        {
          "internalType": "uint256",
          "name": "_price",
          "type": "uint256"
        }
      ],
      "name": "createProduct",
      "outputs": [],
      "stateMutability": "nonpayable",
      "type": "function"
    },
    {
      "inputs": [
        {
          "internalType": "uint256",
          "name": "_id",
          "type": "uint256"
        }
      ],
      "name": "purchaseProduct",
      "outputs": [],
      "stateMutability": "payable",
      "type": "function"
    }
  ],
  "bytecode": "0x6080604052600080556000600260146101000a81548160ff02191690831515021790555034801561002f57600080fd5b5033600260006101000a81548173ffffffffffffffffffffffffffffffffffffffff021916908373ffffffffffffffffffffffffffffffffffffffff1602179055506040518060400160405280601581526020017f436f6e73656e737973204d61726b6574706c6163650000000000000000000000815250600190805190602001906100bc9291906100c2565b5061015f565b828054600181600116156101000203166002900490600052602060002090601f016020900481019282601f1061010357805160ff1916838001178555610131565b82800160010185558215610131579182015b82811115610130578251825591602001919060010190610115565b5b50905061013e9190610142565b5090565b5b8082111561015b576000816000905550600101610143565b5090565b610f868061016e6000396000f3fe60806040526004361061007b5760003560e01c80638da5cb5b1161004e5780638da5cb5b14610253578063c4ae316814610294578063e0f6ef87146102ab578063e9300c6c146102d65761007b565b806306fdde031461008057806338e76a03146101105780635c975abb1461013e5780637acc0b201461016b575b600080fd5b34801561008c57600080fd5b506100956103a8565b6040518080602001828103825283818151815260200191508051906020019080838360005b838110156100d55780820151818401526020810190506100ba565b50505050905090810190601f1680156101025780820380516001836020036101000a031916815260200191505b509250505060405180910390f35b61013c6004803603602081101561012657600080fd5b8101908080359060200190929190505050610446565b005b34801561014a57600080fd5b506101536108c4565b60405180821515815260200191505060405180910390f35b34801561017757600080fd5b506101a46004803603602081101561018e57600080fd5b81019080803590602001909291905050506108d7565b60405180868152602001806020018581526020018473ffffffffffffffffffffffffffffffffffffffff1681526020018315158152602001828103825286818151815260200191508051906020019080838360005b838110156102145780820151818401526020810190506101f9565b50505050905090810190601f1680156102415780820380516001836020036101000a031916815260200191505b50965050505050505060405180910390f35b34801561025f57600080fd5b506102686109d2565b604051808273ffffffffffffffffffffffffffffffffffffffff16815260200191505060405180910390f35b3480156102a057600080fd5b506102a96109f8565b005b3480156102b757600080fd5b506102c0610ae7565b6040518082815260200191505060405180910390f35b3480156102e257600080fd5b506103a6600480360360408110156102f957600080fd5b810190808035906020019064010000000081111561031657600080fd5b82018360208201111561032857600080fd5b8035906020019184600183028401116401000000008311171561034a57600080fd5b91908080601f016020809104026020016040519081016040528093929190818152602001838380828437600081840152601f19601f82011690508083019250505050505050919291929080359060200190929190505050610aed565b005b60018054600181600116156101000203166002900480601f01602080910402602001604051908101604052809291908181526020018280546001816001161561010002031660029004801561043e5780601f106104135761010080835404028352916020019161043e565b820191906000526020600020905b81548152906001019060200180831161042157829003601f168201915b505050505081565b60001515600260149054906101000a900460ff161515146104cf576040517f08c379a00000000000000000000000000000000000000000000000000000000081526004018080602001828103825260128152602001807f436f6e747261637420697320506175736564000000000000000000000000000081525060200191505060405180910390fd5b6104d7610e06565b600360008381526020019081526020016000206040518060a001604052908160008201548152602001600182018054600181600116156101000203166002900480601f0160208091040260200160405190810160405280929190818152602001828054600181600116156101000203166002900480156105985780601f1061056d57610100808354040283529160200191610598565b820191906000526020600020905b81548152906001019060200180831161057b57829003601f168201915b50505050508152602001600282015481526020016003820160009054906101000a900473ffffffffffffffffffffffffffffffffffffffff1673ffffffffffffffffffffffffffffffffffffffff1673ffffffffffffffffffffffffffffffffffffffff1681526020016003820160149054906101000a900460ff1615151515815250509050600081606001519050600082600001511180156106415750600054826000015111155b61064a57600080fd5b816040015134101561065b57600080fd5b81608001511561066a57600080fd5b3373ffffffffffffffffffffffffffffffffffffffff168173ffffffffffffffffffffffffffffffffffffffff1614156106a357600080fd5b33826060019073ffffffffffffffffffffffffffffffffffffffff16908173ffffffffffffffffffffffffffffffffffffffff168152505060018260800190151590811515815250508160036000858152602001908152602001600020600082015181600001556020820151816001019080519060200190610726929190610e4d565b506040820151816002015560608201518160030160006101000a81548173ffffffffffffffffffffffffffffffffffffffff021916908373ffffffffffffffffffffffffffffffffffffffff16021790555060808201518160030160146101000a81548160ff0219169083151502179055509050508073ffffffffffffffffffffffffffffffffffffffff166108fc349081150290604051600060405180830381858888f193505050501580156107e1573d6000803e3d6000fd5b507f79558d0d7d4d900e2f15c4cc0a665f1acdbe415e44de900ecdd1e5bf12b56f4e838360200151846040015133600160405180868152602001806020018581526020018473ffffffffffffffffffffffffffffffffffffffff1681526020018315158152602001828103825286818151815260200191508051906020019080838360005b83811015610881578082015181840152602081019050610866565b50505050905090810190601f1680156108ae5780820380516001836020036101000a031916815260200191505b50965050505050505060405180910390a1505050565b600260149054906101000a900460ff1681565b6003602052806000526040600020600091509050806000015490806001018054600181600116156101000203166002900480601f0160208091040260200160405190810160405280929190818152602001828054600181600116156101000203166002900480156109895780601f1061095e57610100808354040283529160200191610989565b820191906000526020600020905b81548152906001019060200180831161096c57829003601f168201915b5050505050908060020154908060030160009054906101000a900473ffffffffffffffffffffffffffffffffffffffff16908060030160149054906101000a900460ff16905085565b600260009054906101000a900473ffffffffffffffffffffffffffffffffffffffff1681565b600260009054906101000a900473ffffffffffffffffffffffffffffffffffffffff1673ffffffffffffffffffffffffffffffffffffffff163373ffffffffffffffffffffffffffffffffffffffff1614610abb576040517f08c379a000000000000000000000000000000000000000000000000000000000815260040180806020018281038252600a8152602001807f4f6e6c79204f776e65720000000000000000000000000000000000000000000081525060200191505060405180910390fd5b600260149054906101000a900460ff1615600260146101000a81548160ff021916908315150217905550565b60005481565b60001515600260149054906101000a900460ff16151514610b76576040517f08c379a00000000000000000000000000000000000000000000000000000000081526004018080602001828103825260128152602001807f436f6e747261637420697320506175736564000000000000000000000000000081525060200191505060405180910390fd5b6000825111610bd0576040517f08c379a000000000000000000000000000000000000000000000000000000000815260040180806020018281038252603f815260200180610eeb603f913960400191505060405180910390fd5b60008111610c29576040517f08c379a0000000000000000000000000000000000000000000000000000000008152600401808060200182810382526027815260200180610f2a6027913960400191505060405180910390fd5b60008081548092919060010191905055506040518060a0016040528060005481526020018381526020018281526020013373ffffffffffffffffffffffffffffffffffffffff168152602001600015158152506003600080548152602001908152602001600020600082015181600001556020820151816001019080519060200190610cb6929190610e4d565b506040820151816002015560608201518160030160006101000a81548173ffffffffffffffffffffffffffffffffffffffff021916908373ffffffffffffffffffffffffffffffffffffffff16021790555060808201518160030160146101000a81548160ff0219169083151502179055509050507fbc59c0c8165864dcceb377dd07d8f431d4303f8e501cb0a0374a10cc68d71836600054838333600060405180868152602001806020018581526020018473ffffffffffffffffffffffffffffffffffffffff1681526020018315158152602001828103825286818151815260200191508051906020019080838360005b83811015610dc4578082015181840152602081019050610da9565b50505050905090810190601f168015610df15780820380516001836020036101000a031916815260200191505b50965050505050505060405180910390a15050565b6040518060a00160405280600081526020016060815260200160008152602001600073ffffffffffffffffffffffffffffffffffffffff1681526020016000151581525090565b828054600181600116156101000203166002900490600052602060002090601f016020900481019282601f10610e8e57805160ff1916838001178555610ebc565b82800160010185558215610ebc579182015b82811115610ebb578251825591602001919060010190610ea0565b5b509050610ec99190610ecd565b5090565b5b80821115610ee6576000816000905550600101610ece565b509056fe50726f64756374204e616d652073686f756c6420626520612076616c6964206e616d65206f66206c656e6774682067726561746572207468616e207a65726f50726f64756374205072696365206d7573742062652067726561746572207468616e207a65726fa26469706673582212208e5fa8cb10ea8a141257845fd41a39b71b6b53b3c857b5e28df8a5c2eaa7b88e64736f6c63430007000033",
  "immutableReferences": {},
  "source": "// SPDX-License-Identifier: MIT\r\n\r\npragma solidity 0.7.0;\r\n\r\n/// @title Marketplace\r\n/// @author Shailendra Kumar Omkar\r\n/// @notice You can use this contract for creating & purchasing Products\r\n/// @dev All function calls are currently implemented without side effects\r\ncontract Marketplace  {\r\n\r\n/// @notice It keeps the counter track of Product which are added\r\n/// @dev Initializing with zero\r\n    uint public productCount=0;\r\n\r\n///DApp Name\r\n  string public name;\r\n\r\n/// Declaring owner of smart contract\r\n  address public owner;\r\n\r\n///Flag use for circuit-break  \r\n  bool public paused = false;\r\n\r\n///Modifier to check correct owner\r\nmodifier isAdmin() {\r\n    require(msg.sender == owner, \"Only Owner\");\r\n    _;\r\n}\r\n\r\n///Modifier to Check contract is Paused\r\nmodifier notPaused {\r\n        require(\r\n            paused == false,\r\n            \"Contract is Paused\"\r\n        );\r\n        _;\r\n    }\r\n\r\n/// @notice Pause the contract in case of emergency.\r\n    function togglePause() public isAdmin {\r\n        //require(msg.sender == owner, \"Only Owner\");\r\n        paused = !paused;\r\n    }\r\n\r\n\r\n /// Create a struct named Product.\r\n /// It contain Product details -  id, name, price, owner, purchased\r\n    struct Product{\r\n        uint id;\r\n        string name;\r\n        uint price;\r\n        address payable owner;\r\n        bool purchased;\r\n    }\r\n\r\n\r\n  /// Create a Public mapping that maps ProductCount (a number) to an Product (struct)\r\n\r\n    mapping(uint => Product) public products;\r\n\r\n  /// @notice Create event ProductCreated for EVM logging\r\n  /// @dev This event will be emitted when a new Product has been created\r\n \r\n    event ProductCreated(\r\n        uint id,\r\n        string name,\r\n        uint price,\r\n        address payable owner,\r\n        bool purchased\r\n    );\r\n\r\n  /// @notice Create event ProductPurchased for EVM logging\r\n  /// @dev This event will be emitted when a Product has been purchased\r\n\r\nevent ProductPurchased(\r\n        uint id,\r\n        string name,\r\n        uint price,\r\n        address payable owner,\r\n        bool purchased\r\n    );\r\n   \r\n   /*Initialsing DApp Name & owner in constructor\r\n     */\r\n   constructor() {\r\n     \r\n        owner = msg.sender;\r\n        name=\"Consensys Marketplace\";\r\n    }\r\n\r\n  /// @notice Creating a Product\r\n  /// @dev It will validate Product Name length & Product Price value\r\n /// @param _name Product Name  _price Product Price\r\n    function createProduct(string memory _name, uint _price) public notPaused  {\r\n      \r\n        require(bytes(_name).length>0 ,\"Product Name should be a valid name of length greater than zero\");\r\n        require(_price >0,\"Product Price must be greater than zero\");\r\n\r\n        productCount++;\r\n        products[productCount] = Product(productCount,_name,_price, msg.sender,false);\r\n\r\n        emit ProductCreated(productCount,_name,_price, msg.sender,false);\r\n        \r\n    }\r\n\r\n   /// @notice Purchasing a Product\r\n   /// @dev It will check for valid Product Id, \r\n   ///      Product Price to purchase\r\n   ///      Product is not already purchased\r\n   ///      Buyer is not same as seller\r\n   /// @param _id product ID\r\n    function purchaseProduct(uint _id) public payable notPaused {\r\n    Product memory _product = products[_id];\r\n\r\n    address payable seller = _product.owner;\r\n\r\n    require(_product.id > 0 && _product.id <= productCount);\r\n    require((msg.value >= _product.price));\r\n    require(!_product.purchased);\r\n    require(seller != msg.sender);\r\n\r\n\r\n    _product.owner = msg.sender;\r\n    _product.purchased = true;\r\n    products[_id] = _product;\r\n\r\n    seller.transfer(msg.value);\r\n    // seller.call{value:msg.value};\r\n    emit ProductPurchased(_id,_product.name,_product.price,msg.sender,true);\r\n    }\r\n}",
  "sourcePath": "C:/Users/Neha/Desktop/Omkar/Blockchain/ConsensysFinalProject/Marketplace/src/contracts/Marketplace.sol",
  "compiler": {
    "name": "solc",
    "version": "0.7.0+commit.9e61f92b.Emscripten.clang"
  },
  "schemaVersion": "3.2.5",
  "updatedAt": "2020-12-13T21:36:18.984Z",
  "devdoc": {
    "author": "Shailendra Kumar Omkar",
    "details": "All function calls are currently implemented without side effects",
    "events": {
      "ProductCreated(uint256,string,uint256,address,bool)": {
        "details": "This event will be emitted when a new Product has been created"
      },
      "ProductPurchased(uint256,string,uint256,address,bool)": {
        "details": "This event will be emitted when a Product has been purchased"
      }
    },
    "kind": "dev",
    "methods": {
      "createProduct(string,uint256)": {
        "details": "It will validate Product Name length & Product Price value",
        "params": {
          "_name": "Product Name  _price Product Price"
        }
      },
      "purchaseProduct(uint256)": {
        "details": "It will check for valid Product Id,       Product Price to purchase      Product is not already purchased      Buyer is not same as seller",
        "params": {
          "_id": "product ID"
        }
      }
    },
    "stateVariables": {
      "productCount": {
        "details": "Initializing with zero"
      }
    },
    "title": "Marketplace",
    "version": 1
  },
  "userdoc": {
    "events": {
      "ProductCreated(uint256,string,uint256,address,bool)": {
        "notice": "Create event ProductCreated for EVM logging"
      },
      "ProductPurchased(uint256,string,uint256,address,bool)": {
        "notice": "Create event ProductPurchased for EVM logging"
      }
    },
    "kind": "user",
    "methods": {
      "createProduct(string,uint256)": {
        "notice": "Creating a Product"
      },
      "name()": {
        "notice": "DApp Name"
      },
      "owner()": {
        "notice": "Declaring owner of smart contract"
      },
      "paused()": {
        "notice": "Flag use for circuit-break  "
      },
      "productCount()": {
        "notice": "It keeps the counter track of Product which are added"
      },
      "products(uint256)": {
        "notice": "Create a Public mapping that maps ProductCount (a number) to an Product (struct)"
      },
      "purchaseProduct(uint256)": {
        "notice": "Purchasing a Product"
      },
      "togglePause()": {
        "notice": "Pause the contract in case of emergency."
      }
    },
    "notice": "You can use this contract for creating & purchasing Products",
    "version": 1
  }
}