{
  "contractName": "Mortal",
  "abi": [
    {
      "inputs": [],
      "name": "owner",
      "outputs": [
        {
          "internalType": "address payable",
          "name": "",
          "type": "address"
        }
      ],
      "stateMutability": "view",
      "type": "function"
    },
    {
      "inputs": [],
      "name": "paused",
      "outputs": [
        {
          "internalType": "bool",
          "name": "",
          "type": "bool"
        }
      ],
      "stateMutability": "view",
      "type": "function"
    },
    {
      "inputs": [],
      "name": "togglePause",
      "outputs": [
        {
          "internalType": "bool",
          "name": "",
          "type": "bool"
        }
      ],
      "stateMutability": "nonpayable",
      "type": "function"
    },
    {
      "inputs": [],
      "name": "shutDownContract",
      "outputs": [],
      "stateMutability": "nonpayable",
      "type": "function"
    }
  ],
  "bytecode": "0x608060405260008060146101000a81548160ff02191690831515021790555034801561002a57600080fd5b506103128061003a6000396000f3fe608060405234801561001057600080fd5b506004361061004c5760003560e01c80635c975abb1461005157806366e1478c146100715780638da5cb5b1461007b578063c4ae3168146100af575b600080fd5b6100596100cf565b60405180821515815260200191505060405180910390f35b6100796100e2565b005b6100836101bf565b604051808273ffffffffffffffffffffffffffffffffffffffff16815260200191505060405180910390f35b6100b76101e3565b60405180821515815260200191505060405180910390f35b600060149054906101000a900460ff1681565b60008054906101000a900473ffffffffffffffffffffffffffffffffffffffff1673ffffffffffffffffffffffffffffffffffffffff163373ffffffffffffffffffffffffffffffffffffffff1614610186576040517f08c379a00000000000000000000000000000000000000000000000000000000081526004018080602001828103825260218152602001806102bc6021913960400191505060405180910390fd5b60008054906101000a900473ffffffffffffffffffffffffffffffffffffffff1673ffffffffffffffffffffffffffffffffffffffff16ff5b60008054906101000a900473ffffffffffffffffffffffffffffffffffffffff1681565b60008060009054906101000a900473ffffffffffffffffffffffffffffffffffffffff1673ffffffffffffffffffffffffffffffffffffffff163373ffffffffffffffffffffffffffffffffffffffff161461028a576040517f08c379a00000000000000000000000000000000000000000000000000000000081526004018080602001828103825260218152602001806102bc6021913960400191505060405180910390fd5b600060149054906101000a900460ff1615600060146101000a81548160ff021916908315150217905550600190509056fe4f6e6c79204f776e65722063616e2063616c6c20746869732066756e6374696f6ea2646970667358221220cfa90f25ec7343ac8b07935a40b4928aa40e235400fa5110f2c3c7a7aac19f4b64736f6c63430007000033",
  "immutableReferences": {},
  "source": "// SPDX-License-Identifier: MIT\r\n\r\npragma solidity 0.7.0;\r\n\r\nimport \"./Owner.sol\";\r\nimport \"./Circuit_Breaker.sol\";\r\n\r\ncontract Mortal is Owner, Circuit_Breaker {\r\n\r\n/// @notice Shutdown the Contract\r\n/// @dev It will validate only Admin can call this function\r\n function shutDownContract() public isAdmin {\r\n    selfdestruct(owner);\r\n}\r\n\r\n}",
  "sourcePath": "C:\\Users\\Neha\\Desktop\\Omkar\\Blockchain\\ConsensysFinalProject\\Marketplace\\src\\contracts\\Mortal.sol",
  "compiler": {
    "name": "solc",
    "version": "0.7.0+commit.9e61f92b.Emscripten.clang"
  },
  "schemaVersion": "3.2.5",
  "updatedAt": "2020-12-13T23:37:01.225Z",
  "devdoc": {
    "kind": "dev",
    "methods": {
      "shutDownContract()": {
        "details": "It will validate only Admin can call this function"
      }
    },
    "version": 1
  },
  "userdoc": {
    "kind": "user",
    "methods": {
      "owner()": {
        "notice": "Declaring owner of smart contract"
      },
      "paused()": {
        "notice": "Flag use for circuit-breaker  "
      },
      "shutDownContract()": {
        "notice": "Shutdown the Contract"
      },
      "togglePause()": {
        "notice": "Pause the contract in case of emergency."
      }
    },
    "version": 1
  }
}