{
  "contractName": "Owner",
  "abi": [
    {
      "inputs": [],
      "name": "owner",
      "outputs": [
        {
          "internalType": "address payable",
          "name": "",
          "type": "address"
        }
      ],
      "stateMutability": "view",
      "type": "function"
    }
  ],
  "bytecode": "0x6080604052348015600f57600080fd5b5060b98061001e6000396000f3fe6080604052348015600f57600080fd5b506004361060285760003560e01c80638da5cb5b14602d575b600080fd5b6033605f565b604051808273ffffffffffffffffffffffffffffffffffffffff16815260200191505060405180910390f35b60008054906101000a900473ffffffffffffffffffffffffffffffffffffffff168156fea2646970667358221220c6c63bc82873ddb13609343cc5efbd20836755182aa960bb65c30ce2199d8aee64736f6c63430007000033",
  "immutableReferences": {},
  "source": "// SPDX-License-Identifier: MIT\r\n\r\npragma solidity 0.7.0;\r\n\r\ncontract Owner {\r\n\r\n    /// Declaring owner of smart contract\r\n  address payable public owner;\r\n\r\n  ///Modifier to check correct owner\r\nmodifier isAdmin() {\r\n    require(msg.sender == owner, \"Only Owner can call this function\");\r\n    _;\r\n}\r\n\r\n}",
  "sourcePath": "C:\\Users\\Neha\\Desktop\\Omkar\\Blockchain\\ConsensysFinalProject\\Marketplace\\src\\contracts\\Owner.sol",
  "compiler": {
    "name": "solc",
    "version": "0.7.0+commit.9e61f92b.Emscripten.clang"
  },
  "schemaVersion": "3.2.5",
  "updatedAt": "2020-12-13T23:37:01.227Z",
  "devdoc": {
    "kind": "dev",
    "methods": {},
    "version": 1
  },
  "userdoc": {
    "kind": "user",
    "methods": {
      "owner()": {
        "notice": "Declaring owner of smart contract"
      }
    },
    "version": 1
  }
}