{
  "contractName": "Owner",
  "abi": [
    {
      "inputs": [],
      "stateMutability": "nonpayable",
      "type": "constructor"
    },
    {
      "inputs": [],
      "name": "owner",
      "outputs": [
        {
          "internalType": "address payable",
          "name": "",
          "type": "address"
        }
      ],
      "stateMutability": "view",
      "type": "function"
    }
  ],
  "bytecode": "0x608060405234801561001057600080fd5b50336000806101000a81548173ffffffffffffffffffffffffffffffffffffffff021916908373ffffffffffffffffffffffffffffffffffffffff16021790555060b98061005f6000396000f3fe6080604052348015600f57600080fd5b506004361060285760003560e01c80638da5cb5b14602d575b600080fd5b6033605f565b604051808273ffffffffffffffffffffffffffffffffffffffff16815260200191505060405180910390f35b60008054906101000a900473ffffffffffffffffffffffffffffffffffffffff168156fea2646970667358221220bd50f7d9e0bff088dd38a907748ef15ea219a67b57744de41cf88f0655da74d064736f6c63430007000033",
  "immutableReferences": {},
  "source": "// SPDX-License-Identifier: MIT\r\n\r\npragma solidity 0.7.0;\r\n\r\ncontract Owner {\r\n\r\n    /// Declaring owner of smart contract\r\n  address payable public owner;\r\n\r\n  ///Modifier to check correct owner\r\nmodifier isAdmin() {\r\n    require(msg.sender == owner, \"Only Owner can call this function\");\r\n    _;\r\n}\r\n\r\nconstructor () {\r\n  owner = msg.sender;\r\n}\r\n\r\n}",
  "sourcePath": "C:\\Users\\Neha\\Desktop\\Omkar\\Blockchain\\ConsensysFinalProject\\Marketplace\\src\\contracts\\Owner.sol",
  "compiler": {
    "name": "solc",
    "version": "0.7.0+commit.9e61f92b.Emscripten.clang"
  },
  "schemaVersion": "3.2.5",
  "updatedAt": "2020-12-18T21:09:11.360Z",
  "devdoc": {
    "kind": "dev",
    "methods": {},
    "version": 1
  },
  "userdoc": {
    "kind": "user",
    "methods": {
      "owner()": {
        "notice": "Declaring owner of smart contract"
      }
    },
    "version": 1
  }
}